:100000000C94CE000C94F6000C94F6000C94F600C0
:100010000C94F6000C94F6000C94F6000C94F60088
:100020000C94F6000C94F6000C944F040C94B80455
:100030000C94F6000C94F6000C94F6000C94F60068
:100040000C94F6000C94F6000C94F6000C94F60058
:100050000C94F6000C94F6000C94F6000C94050435
:100060000C94F6000C94F6000C94F6000C94F60038
:100070000C94F6000C94F6000C94F6000C94F60028
:100080000C94F6000C94F6000C94F6000C94F60018
:100090000C94F6000C94F6000C94F6000C94F60008
:1000A0000C94F6000C94F6000C94F600080B000279
:1000B0000202000009040000010202000005240001
:1000C0001001052401010104240206052406000193
:1000D0000705810310004009040100020A00000026
:1000E00007050202400000070583024000000403E8
:1000F000090412010002EF0201409A23118000015D
:10010000010203014164616672756974004369729A
:100110006375697420506C617967726F756E6400E5
:1001200000000000240027002A002D0030000000FD
:100130000000250028002B002E00310004040404D8
:10014000040304050202020204030202020206067C
:100150000606060604040202020404040802011052
:1001600040804010204080408008020401804020F0
:100170001002011080102040402000000002000901
:100180000F0000030401000C00000000000000004C
:1001900000000000000000000000280811241FBE1D
:1001A000CFEFDAE0DEBFCDBF21E0A2E6B1E001C0D3
:1001B0001D92A33DB207E1F711E0A0E0B1E0EEEB44
:1001C000F0E102C005900D92A236B107D9F710E018
:1001D000CEECD0E004C02197FE010E945708CD3C30
:1001E000D107C9F70E94FA060C945D080C94000030
:1001F000E7E8F1E02491E8E6F1E03491E9E4F1E0A8
:100200009491992309F430C02223E9F021502F3032
:10021000D0F4E22FF0E0E15FFE4F0C9457083D016F
:1002200041011E013501390123012301230144014C
:100230004A014E015201580123015C0120918000C6
:100240002F7720938000E92FF0E0EE0FFF1FE25D93
:10025000FE4FA591B4919FB7F894EC91811132C0F3
:1002600030953E233C939FBF0895209180002F7DC1
:10027000E8CF20918000277FE4CF24B52F7724BDDD
:10028000E2CF24B52F7DFBCF209190002F772093D4
:100290009000D9CF209190002F7DF9CF2091900030
:1002A000277FF5CF2091C0002F772093C000CBCFC0
:1002B0002091C0002F7DF9CF2091C200277F20938D
:1002C000C200C1CF3E2BCECFFC0180917E0188239E
:1002D00009F13FB7F89482E08093E9002091F200A1
:1002E000822F90E01816190614F481E090E088231C
:1002F00031F044E640937D014091F1004083222398
:1003000039F02091F200211103C02BE62093E80080
:100310003FBF08958FEF9FEF08952FB7F89483E0C4
:100320008093E9009091E800892F807295FF04C0C6
:100330009091F20080E4891B2FBF08958091750190
:1003400081110DC082E08093710184E0809372017D
:10035000109274011092730181E08093750181E71E
:1003600091E008953FB7F89480916D0190916E01EE
:10037000A0916F01B091700126B5A89B05C02F3FD9
:1003800019F00196A11DB11D3FBFBA2FA92F982FBB
:100390008827BC01CD01620F711D811D911D43E0B5
:1003A000660F771F881F991F4A95D1F70895CF923E
:1003B000DF92EF92FF920E94B2016B017C010E94DA
:1003C000B2016C197D098E099F09683E7340810551
:1003D0009105A8F3FF90EF90DF90CF9008954091A2
:1003E00064015091650120916201309163014217CF
:1003F0005307B4F49091E8009570E1F39091E80010
:1004000092FD19C08093F100809164019091650183
:1004100001968F739927892B19F48EEF8093E8004A
:10042000809164019091650101969093650180939C
:10043000640181E0089580E00895EF92FF920F93A8
:100440001F93CF93DF93F82E192FE62E042F81E010
:10045000860F880F0E94EF0183E00E94EF01CF2DED
:10046000D12FEC0EFD2EF11CCE15DF05B9F007FFE4
:1004700013C0FE0184910E94EF01182F80E00E94BA
:10048000EF01812321968111EFCFDF91CF911F9151
:100490000F91FF90EF9008958881EDCF81E0F5CF27
:1004A000DF92EF92FF920F931F93CF93DF93D82E9B
:1004B0008A01EB017B01E40EF51ECE15DF0559F034
:1004C000D7FE12C0FE0184910E94EF012196811196
:1004D000F4CF0FEF1FEFC801DF91CF911F910F9164
:1004E000FF90EF90DF9008958881EECF0F931F93D8
:1004F000CF93DF931F92CDB7DEB782E0898342E4CA
:1005000050E06CEA70E080E80E9450020E949E0178
:10051000DC0112960D911C910115110589F0D8018D
:10052000ED91FC910280F381E02DBE016F5F7F4F62
:10053000C801099597FD04C0F80100851185ECCF2D
:1005400089810F90DF91CF911F910F9108958F9224
:100550009F92AF92BF92CF92DF92EF92FF920F9352
:100560001F93CF93DF936C017B018A0180910B0174
:10057000882309F457C080917E01882309F452C072
:100580008091680180FF05C08091E00082608093C7
:10059000E000E801B12C8AEFA82E93E0892E2AE32F
:1005A000922E209711F4BB20B9F10E948D01811188
:1005B00006C0AA94AA20B1F10E94D701F2CF8C17ED
:1005C0001D0611F00CF08C2F9FB7F8948092E90073
:1005D0002091E80025FD02C09FBFE3CF282F30E027
:1005E000C21BD30BF701815020F041914093F100E1
:1005F000FACFE20EF31EBB2021F09092E800B12C5E
:10060000EBCF8091E80085FDE7CF9092E800BB2416
:10061000B394209709F3F3CF84E680936701101613
:1006200011063CF081E090E0F6019383828310E0B4
:1006300000E0C801DF91CF911F910F91FF90EF90E3
:10064000DF90CF90BF90AF909F908F900895CF9301
:10065000DF931F92CDB7DEB76983DC01ED91FC918A
:100660000280F381E02D41E050E0BE016F5F7F4FDB
:1006700009950F90DF91CF91089583E08093E90071
:100680008091F200882319F08AE38093E8000895AE
:100690000E948D0190E00895CF93DF931F92CDB714
:1006A000DEB7FC018485958597FD08C02FEF3FEFED
:1006B000358724870F90DF91CF910895CE01019661
:1006C0000E946401019719F4898190E0F3CF8FEFC4
:1006D0009FEFF0CF0F931F93CF93DF931F92CDB770
:1006E000DEB78C01FC018485958597FF0BC0CE0198
:1006F00001960E946401019771F4898190E0F801EC
:1007000095878487F801848595850F90DF91CF9137
:100710001F910F9108958FEF9FEFF1CF2FB7F894AE
:1007200080917F0190918001A0918101B09182011F
:100730002FBF80938B0190938C01A0938D01B09378
:100740008E0183E891E00E946A0397FF26C02FB7CD
:10075000F89480917F0190918001A0918101B091E6
:1007600082012FBF40918B0150918C0160918D01CE
:1007700070918E01841B950BA60BB70B40918701DE
:10078000509188016091890170918A0184179507C1
:10079000A607B707B0F28FEF9FEF0895FC0184859D
:1007A000958597FD0BC09FB7F89482E08093E90090
:1007B0008091F2009FBF90E0019608959FB7F89452
:1007C00082E08093E9008091F2009FBF90E008955D
:1007D000CF93DF93FC0101900020E9F73197AF013F
:1007E000481B590BBC0183E891E00E94A702EC0171
:1007F00042E050E065E271E083E891E00E94A702E8
:100800008C0F9D1FDF91CF9108951F920F920FB60D
:100810000F9211242F933F938F939F93AF93BF9386
:1008200080917F0190918001A0918101B09182011E
:1008300030916C0126E0230F2D3758F50296A11D4B
:10084000B11D20936C0180937F0190938001A09350
:100850008101B093820180916D0190916E01A09110
:100860006F01B09170010196A11DB11D80936D01C2
:1008700090936E01A0936F01B0937001BF91AF91FF
:100880009F918F913F912F910F900FBE0F901F90CE
:10089000189529E8230F0396A11DB11DD2CF1F92F1
:1008A0000F920FB60F9211248F939F938091E100C6
:1008B0009091E100937F9093E10083FF0FC010922D
:1008C000E90091E09093EB001092EC0092E390939A
:1008D000ED0010927E0198E09093F00082FF1CC022
:1008E00093E09093E9009091F200992319F09AE334
:1008F0009093E80090916701992329F09091670106
:1009000091509093670190917D01992329F09091E6
:100910007D01915090937D0184FF18C08091E20089
:100920008E7E81608093E2008091E1008F7E8093D3
:10093000E100809168018E7E8061809368019F91C3
:100940008F910F900FBE0F901F90189580FFF7CFDB
:100950008091E2008E7E80618093E2008091E100D0
:100960008E7E8093E100809168018E7E8160E5CF6C
:100970001F920F920FB60F921124CF92DF92EF9237
:10098000FF920F931F932F933F934F935F936F9318
:100990007F938F939F93AF93BF93EF93FF93CF93E7
:1009A000DF93CDB7DEB76C97DEBFCDBF1092E90005
:1009B0008091E80083FF2FC089E0FE017596EE2E3E
:1009C000DF2E815029F09091F10090833196F9CF7C
:1009D00084E680937D0182EF8093E8008D8987FF14
:1009E00039C09091E80090FFFCCF982F907609F0E5
:1009F00033C19E894F89588D2F89F88C911131C050
:100A0000803861F5809169018093F1001092F100C6
:100A10008EEF8093E8006C960FB6F894DEBF0FBEA1
:100A2000CDBFDF91CF91FF91EF91BF91AF919F919A
:100A30008F917F916F915F914F913F912F911F9176
:100A40000F91FF90EF90DF90CF900F900FBE0F901F
:100A50001F9018959EEF9093E800C7CF1092F10079
:100A6000D5CF913059F48111D3CF4130510581F662
:100A7000809169018D7F80936901CACF933049F4D9
:100A80008111C6CF4130510519F68091690182600C
:100A9000F2CF953041F48091E80080FFFCCF2068D0
:100AA0002093E300B5CF963009F0A8C00B8D1C8DC4
:100AB00022E01092E9001092650110926401F21296
:100AC0002EC010926301109262010E9476021F8272
:100AD00099E09983FA8291E09E8390EA98879AEF51
:100AE00099872091640130916501275F3F4F3C83D6
:100AF0002B838D831092E90010926501109264019E
:100B0000109363010093620149E050E0BE016F5F02
:100B10007F4F80E00E9450020E94760279CF1093AE
:100B20006301009362010E949E01DC0112960D9107
:100B30001C910115110509F457C1D801ED91FC91E3
:100B40000480F581E02D6E2D7D2DC801099500975B
:100B500009F045C1F80100851185EBCFF3E0FF12E4
:100B60000EC08F89882309F440C0823061F440E8C8
:100B700062E18DE091E00E941D02811149CF81E286
:100B80008093EB0048CF813029F440E868E084E0AE
:100B900091E0F1CF833099F70E949E01DC0112961B
:100BA000ED90FC908E010F5F1F4F6801E114F1047E
:100BB00079F0D701ED91FC910680F781E02DB80125
:100BC000C7010995080F111DF701E084F184EECFEC
:100BD000D8011C92F60101900020E9F73197BF017E
:100BE0006C197D0940E0C601C6CF6EEE70E0FB01D6
:100BF000449150E080E80E9450020ACF973009F4F7
:100C0000BECF983021F481E08093F10001CF99307C
:100C100009F0FECE837009F0B2CFEFE1F1E081E0A0
:100C200031E096E32191222371F08093E900309323
:100C3000EB00DF0111972C912093EC009093ED00D5
:100C40008F5F873079F78EE78093EA001092EA0091
:100C50008F8980937E01DCCE8B8D9C8D1092E90074
:100C60001092650110926401909363018093620178
:100C7000898D81119AC08E899D89913A49F481327A
:100C800009F07DCF47E050E064E071E080E0B3CF51
:100C9000913209F074CF833269F48F89988DB0E076
:100CA000A0E08093000190930101A0930201B09312
:100CB0000301AECE8032A9F48091E80082FFFCCF20
:100CC00088E0E4E0F1E0815029F09091F100908318
:100CD0003196F9CF84E680937D018BEF8093E80015
:100CE00097CE823209F094CE8F8980930B01EEEF7C
:100CF000FFE7859194918B3F9C4D51F1E0E0F8E046
:100D00008091040190910501A0910601B091070125
:100D1000803B9440A105B105F1F480910B0180FD69
:100D20001AC0EE3F8AE0F80789F587E797E79183D5
:100D30008083809160008093660188E19BE00FB61C
:100D4000F894A895809360000FBE9093600060CEE9
:100D5000EEEFFAE0D5CF808191818737974709F090
:100D600057CEA89580916000886180936000809143
:100D7000660180936000EE3F2AE0F20789F08091DF
:100D8000FE0A9091FF0A9183808342CE80819181F7
:100D90008737980751F29093FF0A8093FE0AC5CFD8
:100DA0001092FF0A1092FE0A33CE0E949E01DC01CF
:100DB00012960D911C910115110509F4E0CED80190
:100DC000ED91FC910190F081E02D6E2D7D2DC801FB
:100DD000099581111DCEF80100851185ECCF1816FB
:100DE00019060CF415CECBCEF1E0FF12B7CE62EFB0
:100DF00070E0FDCE789484B5826084BD84B5816056
:100E000084BD85B5826085BD85B5816085BD8091D5
:100E10006E00816080936E0010928100809181004D
:100E20008260809381008091810081608093810045
:100E30008091800081608093800080919100826029
:100E400080939100809191008160809391008091C6
:100E500090008160809390008091C10084608093B5
:100E6000C1008091C10082608093C1008091C10067
:100E700081608093C1008091C30081608093C30032
:100E80008091C00082608093C0008091C200816028
:100E90008093C20080917A00846080937A00809170
:100EA0007A00826080937A0080917A008E7F8093AE
:100EB0007A0080917A00806880937A0010927E0197
:100EC00010926901109268018091D700816080932F
:100ED000D70080EA8093D80089B58F7E89BD89B517
:100EE000826089BD09B400FEFDCF0E94D7018091C8
:100EF000D8008F7C80618093D8008091E000807F53
:100F00008093E0008091E1008E7E8093E1008DE08F
:100F10008093E200E8E6F1E02491E9E4F1E08491D5
:100F2000882399F090E0880F991FFC01E05EFE4F46
:100F3000A591B491FC01E25DFE4F859194918FB72C
:100F4000F894EC91E22BEC938FBF80E00E94F800C4
:100F50008FEF9FEF9093900180938F0188E291E053
:100F60000E94E803C0E0D0E083E891E00E94CE0355
:100F7000892B09F453C00E948E03FC0197FD4AC0DF
:100F80008D32910519F0C0970A97E8F5C12CD12C44
:100F9000760110E0E130F105D1F0ED32F105C1F15B
:100FA000CF01C0970A9798F4AAE0B0E0A701960194
:100FB0000E943D086F01FF0FEE08FF08C60ED71E06
:100FC000E81EF91E20E3C21AD108E108F10883E8FF
:100FD00091E00E944C030E948E03FC01C0970A9787
:100FE000C8F2E130F105B1F2112341F0F094E09440
:100FF000D094C094C11CD11CE11CF11CD0926B0197
:10100000C0926A01B1CF83E891E00E944C03B3CF54
:1010100011E0DDCFC12CD12C7601F0CF80916A0197
:1010200090916B018D3692406CF081E00E94F80047
:101030008EE391E00E94E803209709F495CF0E9487
:10104000000092CF80E00E94F80081E591E0F2CFAD
:10105000E3E8F1E01382128288EE93E0A0E0B0E0D2
:1010600084839583A683B78380E191E09183808315
:101070008FEF9FEF9587848708950E944808A59F6A
:10108000900DB49F900DA49F800D911D1124089583
:10109000A29FB001B39FC001A39F700D811D1124B9
:1010A000911DB29F700D811D1124911D0895EE0FA9
:0E10B000FF1F0590F491E02D0994F894FFCFF6
:1010BE00FFFFFFFF00E10000000000000000000045
:1010CE002703A70248033D03CE034C036A0300C166
:1010DE0080810000000D0A00436F6E657869C3B30E
:1010EE006E2045737461626C65636964610053655B
:1010FE0020656E6369656E646520656C206C656441
:10110E0000536520617061676120656C206C6564B9
:02111E000000CF
:00000001FF
